:020000040800F2
:100000007806002031020008CF0700086F050008BD
:10001000CD070008E10400083D0D000800000000C5
:10002000000000000000000000000000FD0A0008C1
:10003000E304000800000000DF0A0008490200088D
:100040004B0200084B0200084B0200084B0200085C
:100050004B0200084B0200084B0200084B0200084C
:100060004B0200084B0200084B0200084B0200083C
:100070004B0200084B0200084B0200084B0200082C
:100080004B0200084B0200084B0200084B0200081C
:100090004B0200084B0200084B0200084B0200080C
:1000A0004B0200084B0200084B0200084B020008FC
:1000B0004B0200084B0200084B0200084B020008EC
:1000C0004B0200084B0200084B0200084B020008DC
:1000D0004B0200084B0200084B0200084B020008CC
:1000E0004B0200084B0200084B0200084B020008BC
:1000F0004B0200084B0200084B0200084B020008AC
:100100004B0200084B0200084B0200084B0200089B
:100110004B0200084B0200084B0200084B0200088B
:100120004B0200084B0200084B0200084B0200087B
:100130004B0200084B0200084B0200084B0200086B
:100140004B0200084B0200084B0200084B0200085B
:100150004B0200084B0200084B0200084B0200084B
:100160004B0200084B0200084B0200084B0200083B
:100170004B0200084B0200084B0200084B0200082B
:100180004B0200084B02000800F002F800F041F8B2
:100190000AA090E8000C82448344AAF10107DA45E2
:1001A00001D100F036F8AFF2090EBAE80F0013F0F3
:1001B000010F18BFFB1A43F001031847F8120000A3
:1001C00018130000103A24BF78C878C1FAD8520733
:1001D00024BF30C830C144BF04680C6070470000C1
:1001E0000023002400250026103A28BF78C1FBD840
:1001F000520728BF30C148BF0B607047642900F028
:100200007F80002070471FB500F056FE1FBD10B55F
:1002100010BD00F030F91146FFF7F5FF00F090FD3A
:1002200000F04EF903B4FFF7F2FF03BC00F052F9FF
:100230000948804709480047FEE7FEE7FEE7FEE77A
:10024000FEE7FEE7FEE7FEE7FEE7FEE704480549B6
:10025000054A064B70470000DD0B000889010008C5
:100260007800002078060020780200207802002024
:100270000FB41CB5074B06AA7B446946009005984D
:1002800000F0DBF80020694600F0EAF81CBC5DF8DD
:1002900014FB0000E50100002DE9F0410E46044684
:1002A000002020622046E168884730B3252805D029
:1002B000D4E901219047206A401CF2E7E16820461A
:1002C00000278847050018D0A5F14100192802D859
:1002D00020354FF400673246294620462760FFF755
:1002E0008DFF40B1012804D0F61D26F00706083620
:1002F000D8E7361DD6E72846DAE7206ABDE8F08160
:100300002DE9F0410646002410687529314616A5EE
:1003100010D0AFF30080002802DA404213A507E0B6
:1003200031688A0701D512A502E0490704D511A555
:10033000012401E0AFF3008000210A2206F1240726
:1003400009E0B0FBF2FCB0FBF2F302FB1C00303022
:1003500078541846491C0028F3D123462A463046D3
:10036000BDE8F04100F00BB8000000002D000000D7
:100370002B000000200000007047704770472DE9F7
:10038000F0470D4699469246044600F1240801685C
:10039000880604D5E06921F01001216000E0012009
:1003A000A84201DD471B00E00027A1697A1902EB92
:1003B0000900081AA0612078C00602D42046AFF3D5
:1003C0000080002608E0D4E901211AF806009047D1
:1003D000206A401C761C20624E45F4DB2078C00663
:1003E0000AD52046AFF3008006E0D4E90121302091
:1003F0009047206A401C2062381EA7F10107F4DCF8
:1004000007E0D4E9012118F805009047206A401C54
:100410002062281EA5F10105F3DC2046AFF3008021
:100420002078000602D50220BDE8F0870120FBE716
:1004300001694A1C02610878704700B58FB0CDE9A8
:1004400001310021059105497944CDE90310114698
:100450006846FFF721FF0FB000BD0000E5FFFFFF7A
:100460000A6802F8010B0A607047000000487047F4
:100470001400002070477546FFF7F8FFAE460500F0
:100480006946534620F00700854618B020B5FFF7AF
:10049000DDFEBDE820404FF000064FF000074FF0B2
:1004A00000084FF0000B21F00701AC46ACE8C00992
:1004B000ACE8C009ACE8C009ACE8C0098D4670479B
:1004C00010B50446AFF300802046BDE81040FFF7AA
:1004D000A9BE000001491820ABBEFEE726000200BD
:1004E000FEE770472DE9F041002201274FF0030C91
:1004F00007FA02F50B682B40AB422CD1066853007B
:100500000CFA03F4A64306600E79D0F800809E40F2
:1005100046EA080606600E79012E01D0022E12D19D
:100520008668A64386604E79D0F808809E4046EAE9
:10053000080686604668AE43466045688E799640F8
:10054000B6B235434560C568A543C560CC799C40CB
:10055000C3681C43C460521C102AC9D3BDE8F08193
:10056000002A01D081617047090481617047FEE76C
:100570003748016841F002010160354810300168D8
:1005800041F4001101603348016821F440310160F9
:10059000016821F440210160016841F400310160EB
:1005A000016841F400210160001D016841F480717F
:1005B0000160016841F400710160001D016821F4CF
:1005C00040310160016821F440210160016841F47B
:1005D00040310160016841F4402101601D49002063
:1005E0000C3108601B482430016821F00F010160C4
:1005F000016821F0F0010160016841F0040101602F
:10060000016841F0400101601348018821F00201B6
:100610000180011D0A8842F02A020A800A1D1388FF
:1006200043F00A0313800C4B20331A880988491CB5
:100630000A431A80191F0A8842F0D2020A800188F0
:1006400041F001010180018841F48061018070471F
:10065000303802400004024000540040F0B5054626
:100660000F461F4C208840F4807020800321012019
:1006700000F094F80028F9D0194E10363580072183
:10068000822000F08BF80028F9D0378007218420E1
:1006900000F084F80028F9D0208840F48070208091
:1006A0000321012000F07AF80028F9D045F001007C
:1006B00030800321022000F071F80028F9D0208852
:1006C00020F480602080208840F400702080032186
:1006D000402000F063F80028F9D03088C0B2F0BDA7
:1006E000005400402DE9F04180460F461646144C58
:1006F000208840F4807020800321012000F04EF813
:100700000028F9D00E4D1035A5F800800721822071
:1007100000F044F80028F9D02F800721842000F051
:100720003DF80028F9D02E800721842000F036F80B
:100730000028F9D0208840F400702080BDE8F081C6
:100740000054004010B500226B21D020FFF7CAFFF3
:1007500000221921D020FFF7C5FF06221A21D02040
:10076000FFF7C0FF18221B21D020FFF7BBFF00229C
:100770001C21BDE81040D020FFF7B4BF70B50D4676
:100780000146D020FFF76AFF4FF6FF7101EA00240F
:100790002946D020FFF762FF204370BD0A4A138824
:1007A0009B0702D41388DB060BD41288904304D134
:1007B0000548001D0088814301D0002070470120BA
:1007C000704700207047000014540040FEE7704757
:1007D00070B500250021284600F0EEF80024002026
:1007E00000F06CF9641CE4B2802CF8D36D1CEDB2FF
:1007F000082DEFD370BD00007CB50121084600F044
:100800006FF901208DF804008DF806008DF80700BF
:1008100002248DF8054000900A4D69462846FFF7EE
:1008200061FE009469462846FFF75CFE01221146EE
:100830002846FFF795FE012202212846FFF790FE89
:100840007CBD0000000002402DE9F0410646002476
:10085000114D802727FA04F2324002212846FFF783
:100860007FFE012211462846FFF77AFE0022012171
:100870002846FFF775FE641CE4B2082CEAD3012277
:1008800011462846FFF76CFE2846BDE8F0410022DD
:100890000121FFF765BE00000000024010B50B4CBF
:1008A000012202212046FFF75BFE0122114620466D
:1008B000FFF756FE002202212046FFF751FE204698
:1008C0000022BDE810400121FFF74ABE00000240AF
:1008D00010B5094C002202212046FFF741FE0122FB
:1008E00011462046FFF73CFE20460122BDE810409D
:1008F0000221FFF735BE00000000024010B50021C4
:100900004FF47A720020401C9042FCD3491C914263
:10091000F8D3FFF771FFAE2000F0BFF8D52000F04C
:10092000BCF8802000F0B9F8A82000F0B6F83F200D
:1009300000F0B3F8D32000F0B0F8002000F0ADF8DC
:10094000402000F0AAF8A12000F0A7F8C82000F08D
:10095000A4F8DA2000F0A1F8122000F09EF881201F
:1009600000F09BF8FF2000F098F8D92000F095F8EF
:10097000F12000F092F8DB2000F08FF8302000F03A
:100980008CF8A42000F089F8A62000F086F88D20CD
:1009900000F083F8142000F080F8AF2000F07DF81C
:1009A000BDE81040FFF714BF0346012000E05843A4
:1009B000491E4A1CFBD1704710B50C4640F0B000F0
:1009C00000F06BF8102040EA141000F066F804F014
:1009D0000F00BDE8104000F060B800002DE9F041C4
:1009E0001546491E461ECF007006F9B2000EFFF7ED
:1009F000E3FF00240E48203D00EB0515285D00F0C4
:100A00005DF8641CE4B2082CF8D3012000EB46002A
:100A1000F9B2C0B2FFF7D0FF00242819007A00F025
:100A20004DF8641CE4B2082CF7D3BDE8F081000057
:100A3000C20E00082DE9F04781460F4690461E463B
:100A400000240A2512E0311B491E0A20FFF7ACFFE3
:100A5000B8FBF0F2B2FBF5F005FB10223819C1B279
:100A600030324846FFF7BAFF641CE4B2B442EAD31E
:100A7000BDE8F0872DE9F04107460D4616460024F3
:100A800006E02819C1B23846FFF7A8FF641CE4B29B
:100A9000325D002AF5D1BDE8F08110B50446FFF7BC
:100AA000FDFE7820FFF7D0FE0020FFF7CDFE2046A8
:100AB000FFF7CAFEBDE81040FFF70ABF10B50446B5
:100AC000FFF7ECFE7820FFF7BFFE4020FFF7BCFEEB
:100AD0002046FFF7B9FEBDE81040FFF7F9BE7047AA
:100AE000054A002903D0116801431160704711685D
:100AF00081431160704700003038024070470000A9
:100B00000249888008880006FCD570470010014023
:100B100000B50346002202E0FFF7F2FF521C985C8A
:100B20000028F9D100BD00000CB50022019200920E
:100B30002649086840F4803008604FF4A0430868F4
:100B400000F4003000900198401C0190009810B90A
:100B500001989842F3D10868800302D501200090E3
:100B600000E00092009801282FD118484030026818
:100B700042F0805202601648026842F4404202602D
:100B8000124808300268026002680260026842F49B
:100B9000A0520260031F0F4A1A600A6842F0807276
:100BA0000A600A689201FCD50B4940F205720A609E
:100BB000016821F003010160016841F00201016058
:100BC0000168C1F381010229FAD10CBD003802404D
:100BD0000070004004154007003C024010B5124868
:100BE000016841F4700101601048016841F00101A1
:100BF00001600E4A00210832116002680C4B1A4055
:100C00000260031D0B4A1A60026822F4802202600F
:100C100006480C300160FFF787FF03494FF0006082
:100C20008039086010BD000088ED00E00038024007
:100C3000FFFFF6FE103000243D48016841F002013C
:100C400001603B481430016841F0100101603948EF
:100C5000016821F070610160016821F0704101605C
:100C6000016841F0E0610160016841F0E04101602C
:100C700030482038016821F440510160016821F4B6
:100C800040410160016841F400510160016841F494
:100C90000041016027481838016821F44051016083
:100CA000016821F440410160016841F40051016094
:100CB000016841F400410160001F016821F040011A
:100CC0000160016821F0800101601A481438016850
:100CD00021F440510160016821F440410160016844
:100CE000016001680160144842F22E210181818A6D
:100CF00021F400718182818A21F48071818281894D
:100D000041F008018181818941F00401818181895B
:100D100021F480618181018A21F44051018281891D
:100D200021F480518181818941F400518181704792
:100D3000303802402004024000100140FEE700006D
:100D400086B0FFF779FFFFF7D9FDFFF711FC4CA044
:100D5000FFF7DEFEFFF7F6FC4C4810230021026887
:100D60000220FFF767FE46A0FFF7D2FE3C213B20A2
:100D7000FFF704FD3E213D20FFF700FD40213F200D
:100D8000FFF7FCFC012142A20846FFF773FE012396
:100D9000092202211846FFF74DFE3EA20121022042
:100DA000FFF768FE3C213B20FFF7E8FC04463E21AC
:100DB0003D20FFF7E3FC054640213F20FFF7DEFC26
:100DC0000646224637A104A8FFF752FA2A4635A163
:100DD00002A8FFF74DFA324632A16846FFF748FAFB
:100DE00032A0FFF795FE04A8FFF792FE30A0FFF7B0
:100DF0008FFE02A8FFF78CFE2EA0FFF789FE684643
:100E0000FFF786FE44214320FFF7B8FC0246042387
:100E100001210320FFF70EFE46214520FFF7AEFC1F
:100E20000246042306210320FFF704FE4821472041
:100E3000FFF7A4FC024604230B210320FFF7FAFD71
:100E40003C213B20FFF79AFC02460423012118466F
:100E5000FFF7F0FD3E213D20FFF790FC0246042302
:100E600006211846FFF7E6FD40213F20FFF786FCEC
:100E7000024604230B211846FFF7DCFD92E7000031
:100E80003131343531340D0A0000000000000020FB
:100E9000470000004146305F32363838303030305D
:100EA0000000000025640D0A00000000783A0000F0
:100EB000793A00007A3A00004FF04070E1EE100AF3
:100EC000704700000000000000000000000000006B
:100ED0000000000000F800000000000000333000B7
:100EE000000000100C06100C0600000000000000BE
:100EF000000040C07840C0784000043F04043F0434
:100F00000400007088FC08300000001820FF211E3B
:100F10000000F008F000E018000000211C031E2172
:100F20001E0000F00888700000001E2123241927ED
:100F3000211010160E00000000000000000000004C
:100F40000000000000E01804020000000007182064
:100F5000400000020418E0000000004020180700D4
:100F60000000404080F0804040000202010F01027A
:100F70000200000000F0000000000101011F01015B
:100F80000100000000000000000080B070000000C0
:100F9000000000000000000000000001010101014C
:100FA00001010000000000000000003030000000DF
:100FB00000000000000080601804006018060100B6
:100FC000000000E010080810E000000F10202010C2
:100FD0000F00001010F8000000000020203F20202B
:100FE00000000070080808887000003028242221C2
:100FF0003000003008888848300000182020201178
:101000000E000000C02010F8000000070424243F58
:10101000240000F808888808080000192120201101
:101020000E0000E0108888180000000F1120201129
:101030000E0000380808C83808000000003F000013
:1010400000000070880808887000001C22212122FE
:101050001C0000E010080810E000000031222211FE
:101060000F00000000C0C000000000000030300091
:101070000000000000800000000000008060000010
:101080000000000080402010080000010204081049
:101090002000404040404040400004040404040458
:1010A0000400000810204080000000201008040206
:1010B0000100007048080808F00000000030360108
:1010C0000000C030C828E810E000071827242314C7
:1010D0000B000000C038E0000000203C2302022783
:1010E000382008F8888888700000203F20202011D0
:1010F0000E00C0300808080838000718202020100B
:10110000080008F808080810E000203F2020201000
:101110000F0008F88888E8081000203F20202320CE
:10112000180008F88888E8081000203F2000030015
:101130000000C03008080838000007182020221ED0
:10114000020008F808000008F808203F21010121EA
:101150003F20000808F8080800000020203F202059
:10116000000000000808F8080800C08080807F00A8
:10117000000008F888C028180800203F2001263801
:10118000200008F8080000000000203F2020202058
:10119000300008F8F800F8F80800203F003F003F52
:1011A000200008F830C00008F808203F2000071889
:1011B0003F00E01008080810E0000F102020201069
:1011C0000F0008F808080808F000203F210101017D
:1011D0000000E01008080810E0000F182424385020
:1011E0004F0008F8888888887000203F2000030C92
:1011F000302000708808080838000038202121229B
:101200001C00180808F8080818000000203F2000FB
:10121000000008F808000008F808001F202020201F
:101220001F000878880000C83808000007380E0141
:101230000000F80800F80008F800033C0700073C2D
:101240000300081868808068180820302C03032CDD
:1012500030200838C800C83808000000203F2000AF
:10126000000010080808C83808002038262120206F
:101270001800000000FE020202000000007F404053
:101280004000000C30C000000000000000010638E3
:10129000C00000020202FE000000004040407F004B
:1012A0000000000004020202040000000000000030
:1012B000000000000000000000008080808080802E
:1012C0008080000202040000000000000000000016
:1012D000000000008080808000000019242222226B
:1012E0003F2008F8008080000000003F11202011FE
:1012F0000E000000008080800000000E11202020E1
:101300001100000000808088F800000E11202010DD
:101310003F200000808080800000001F22222222C7
:101320001300008080F0888888180020203F20204B
:1013300000000000808080808000006B9494949373
:10134000600008F8008080800000203F210000201D
:101350003F2000809898000000000020203F2020BF
:101360000000000000809898000000C08080807F0E
:10137000000008F8000080808000203F24022D300B
:101380002000000808F8000000000020203F202076
:1013900000008080808080808000203F20003F20EF
:1013A000003F8080008080800000203F21000020DE
:1013B0003F200000808080800000001F202020202F
:1013C0001F00808000808000000080FFA12020118D
:1013D0000E000000008080808000000E112020A000
:1013E000FF80808080008080800020203F212000BE
:1013F00001000000808080808000003324242424A9
:101400001900008080E0808000000000001F202084
:1014100000008080000000808000001F202020103D
:101420003F20808080000080808000010E30080610
:10143000010080800080008080800F300C030C3021
:101440000F0000808000808080000020312E0E314F
:101450002000808080000080808080818E7018064F
:10146000010000808080808080000021302C2221BB
:10147000300000000000807C020200000000003FFD
:10148000404000000000FF00000000000000FF00DE
:1014900000000002027C800000000040403F00008D
:1014A0000000000601010202040400000000000028
:1014B00000000000D4140008000000201400000008
:1014C000C4010008E81400081400002064060000AD
:1014D000E001000800BD0105000000000000000060
:0814E0000102030406070809DC
:040000050800018965
:00000001FF
